:020000040800F2
:10000000401100206902000831120008810A00082E
:10001000E71000083D0600087B25000800000000EE
:100020000000000000000000000000005D1B000850
:1000300071060008000000000114000829220008D1
:10004000830200088302000883020008830200087C
:100050008302000883020008750600088302000876
:10006000C10600081107000879070008830200088C
:10007000830200088302000883020008830200084C
:10008000830200088302000883020008830200083C
:10009000830200088302000883020008830200082C
:1000A000830200088302000883020008830200081C
:1000B000830200088302000883020008830200080C
:1000C00083020008830200088302000883020008FC
:1000D000830200084D230008830200088302000801
:1000E00083020008830200088302000883020008DC
:1000F00083020008830200088302000883020008CC
:1001000083020008830200088302000883020008BB
:1001100083020008830200088302000883020008AB
:10012000830200088302000883020008830200089B
:10013000830200088302000883020008830200088B
:10014000830200088302000883020008830200087B
:10015000830200088302000883020008830200086B
:10016000830200088302000883020008830200085B
:10017000830200088302000883020008830200084B
:10018000830200088302000800F002F800F05CF827
:100190000AA090E8000C82448344AAF10107DA45E2
:1001A00001D100F051F8AFF2090EBAE80F0013F0D8
:1001B000010F18BFFB1A43F001031847942D0000EC
:1001C000B42D00000A444FF0000C10F8013B13F06E
:1001D000070408BF10F8014B1D1108BF10F8015BA0
:1001E000641E05D010F8016B641E01F8016BF9D193
:1001F00013F0080F1EBF10F8014BAD1C0C1B09D1EA
:100200006D1E58BF01F801CBFAD505E014F8016B5B
:1002100001F8016B6D1EF9D59142D6D370470000ED
:100220000023002400250026103A28BF78C1FBD8FF
:10023000520728BF30C148BF0B6070471FB502F09E
:1002400075FA1FBD10B510BD00F0FAF81146FFF7A2
:10025000F5FF02F0FFF900F02CF903B4FFF7F2FF0D
:1002600003BC02F08CF900000948804709480047A8
:10027000FEE7FEE7FEE7FEE7FEE7FEE7FEE7FEE756
:10028000FEE7FEE704480549054A064B70470000B3
:100290002D22000889010008400B00204011002099
:1002A000400D0020400D0020704700000FB40449AD
:1002B00010B503AA029800F095F810BC5DF814FB85
:1002C000780A002040EA0103024630B59B0710D1AE
:1002D0004FF0013400E008C208C91D1B9D4315EA18
:1002E000C41FF8D013F0FF0102F8011B0DD01B0A48
:1002F000F8E711F8013B002B02F8013B05D011F89B
:10030000013B002B02F8013BF3D130BD10B5431C7B
:1003100002E010F8011B71B18107FAD14FF00132F0
:1003200002C88C1A8C4314EAC211F9D0C01A0A060A
:1003300003D0C01E10BDC01A10BD0A0401D0801E1B
:1003400010BD0902FCD0401E10BD4FF00002042970
:10035000C0F0128010F0030C00F01B80CCF1040CF4
:10036000BCF1020F18BF00F8012BA8BF20F8022B28
:10037000A1EB0C0100F00DB85FEAC17C24BF00F8CE
:10038000012B00F8012B48BF00F8012B70474FF0FC
:10039000000200B5134694469646203922BFA0E8D5
:1003A0000C50A0E80C50B1F12001BFF4F7AF0907E1
:1003B00028BFA0E80C5048BF0CC05DF804EB8900D2
:1003C00028BF40F8042B08BF704748BF20F8022B15
:1003D00011F0804F18BF00F8012B7047704770472D
:1003E00070477047074B70B50D467B4400F011F81D
:1003F0000446284600F020F810B14FF0FF3070BDE1
:10040000204670BD4B22000001694A1C0261087839
:10041000704700B58FB0CDE9013100210591054944
:100420007944CDE903101146684600F02EF80FB06C
:1004300000BD0000E5FFFFFF007B00F0800070477B
:10044000754600F03DF8AE4605006946534620F07B
:100450000700854618B020B5FFF714FFBDE820401F
:100460004FF000064FF000074FF000084FF0000B70
:1004700021F00701AC46ACE8C009ACE8C009ACE823
:10048000C009ACE8C0098D4670472DE9F041064629
:100490000024D6E90170F5688046304603E0414605
:1004A000B847641C3046A8470028F8D12046BDE86C
:1004B000F0810446AFF300802046FFF7CEFE000037
:1004C00000487047DC0A002010B500F003FB10BDA7
:1004D0002DE9F04107460D4616464FF0000800246E
:1004E00000F080FBA02000F0E3FB00F0BBFB38B184
:1004F00000F098FB12A0FFF7D9FE601EBDE8F08166
:10050000384600F0D5FB002000F0BCFA00F06AFB92
:10051000A12000F0CDFB002000F0B4FA06E000F0CE
:10052000F9FA2855002000F0ADFA641CB442F6DB5D
:10053000012000F0A7FA00F075FB4046DEE700005E
:10054000B7A2CBCDC6F7BCFEB5D8D6B7CAA7B0DC2C
:100550002E2E2E0D0A0000002DE9F0470746884692
:10056000914600253C46002641E03EB1E11704EBF0
:100570005171C910A4EBC101002923D100F052FB35
:10058000012002F023F800F02DFBA02000F090FBEA
:1005900000F068FB40B100F045FB18A0FFF786FEB5
:1005A0004FF0FF30BDE8F087204600F081FB00F0FF
:1005B00059FB38B100F036FB16A0FFF777FE4FF07D
:1005C000FF30EFE718F8050000F072FB00F04AFB7F
:1005D00038B100F027FB14A0FFF768FE4FF0FF30A2
:1005E000E0E7681CC5B2601CC4B2701CC6B24E45C0
:1005F000BBDB00F017FB2846D4E70000B7A2CBCD49
:10060000C6F7BCFEB5D8D6B7CAA7B0DC2E2E2E0DC5
:100610000A000000B7A2CBCDD7D6B5D8D6B7CAA7A7
:10062000B0DC2E2E2E0D0A00B7A2CBCDCAFDBEDD4A
:10063000CAA7B0DC2E2E2E0D0A00000000BFFEE778
:1006400010B50121402000F0DDFE012006490871AF
:10065000002088714FF4007008600120C871487153
:10066000024800F080F910BD900A002000180240F6
:100670007047000010B5012000F0B8F820B14FF429
:10068000967001F07EFF00E010BD012000F0AEF892
:1006900080B109480068012803D10020064908609C
:1006A00002E001200449086000200449086001209C
:1006B00000F096F800BFE7E7980A00209C0A0020A7
:1006C00010B5042000F092F820B14FF4967001F0BC
:1006D00058FF00E010BD042000F088F888B10A48F7
:1006E000006801280AD009480068022803D10320C5
:1006F0000649086002E0022004490860042000F076
:100700006FF800BFE6E70000980A00209C0A00206E
:1007100010B5082000F06AF820B14FF4967001F08F
:1007200030FF00E010BD082000F060F8C8B10E48AE
:100730000068012812D00D480068022805D10C4835
:100740000068401C0A49086008E00848006803285F
:1007500004D108480068401C06490860082000F0E1
:100760003FF800BFDEE70000980A00209C0A002046
:10077000800A0020840A002010B5102000F036F80E
:1007800020B14FF4967001F0FCFE00E010BD102087
:1007900000F02CF8C8B10E480068012812D00D48AE
:1007A0000068022805D10C480068401E0A4908600C
:1007B00008E008480068032804D108480068401E83
:1007C00006490860102000F00BF800BFDEE70000CB
:1007D000980A00209C0A0020800A0020840A002039
:1007E0000149086070470000143C014001460020A8
:1007F000034A12680A400AB1012000E00020704755
:10080000143C0140002123498279002A3AD00A464B
:10081000126803689A430B461A600A1D126803683F
:100820009A430B1D1A60027911440A6803681A433F
:100830000A60184A0832126803689A43154B083355
:100840001A601A1D126803689A43124B0C331A601F
:100850004279102A0ED11A1F126803681A430D4BF1
:1008600008331A601A1D126803681A43094B0C33C7
:100870001A600DE00749427911440A6803681A4377
:100880000A6005E0027911440A6803689A430A6025
:1008900070470000003C01400EB50121880300F0C4
:1008A000D1FD00F029FB0021084601F059F9022191
:1008B000042001F055F90321042001F051F904212D
:1008C000084601F04DF9012001908DF80A00002042
:1008D0008DF8080008208DF8090001A8FFF792FFA5
:1008E0000420019001A8FFF78DFF0820019001A8C6
:1008F000FFF788FF1020019001A8FFF783FF062073
:100900008DF8000001208DF8030000208DF8010013
:1009100001208DF80200684600F08CFC08208DF85C
:10092000000001208DF8010002208DF802006846C9
:1009300000F080FC09208DF8000002208DF80100F5
:1009400003208DF80200684600F074FC0A208DF840
:10095000000003208DF8010004208DF80200684695
:1009600000F068FC0EBDF0B50A460021002300240B
:1009700000BF3DE0012505FA01F3156805EA03040F
:100980009C4234D105684F000326BE40B543056044
:1009900015794E00B5400668354305601579012D7F
:1009A00002D01579022D16D185684F000326BE406E
:1009B000B543856055794E00B540866835438560FE
:1009C000456801268E40B5434560456896798E405E
:1009D000B6B235434560C5684F000326BE40B543F7
:1009E000C560D5794E00B540C6683543C560491C21
:1009F0001029BFD3F0BDF0B5002300244D07ED0E44
:100A000002FA05F3CE1000F1200555F826504E07E6
:100A1000F70E0F26BE40B543CF1000F1200646F872
:100A20002750CE1000F1200555F8265045EA030462
:100A3000CE1000F1200545F82640F0BD024600200A
:100A400013690B400BB1012000E000207047418387
:100A500070470183704700001CB5FFF7F1FD684641
:100A600000F066FF9DF80000034908609DF8020051
:100A7000024908601CBD00008C0A0020880A002082
:100A800000BFFEE710B5044600F090F84FF4807107
:100A90000F48FFF7DCFF052001F0A7FD2CB14FF454
:100AA00000710B48FFF7D5FF04E04FF400710848D0
:100AB000FFF7CDFF4FF480710548FFF7CAFF05200F
:100AC00001F093FD4FF480710148FFF7C0FF10BDA6
:100AD000000402401CB50121022000F093FC01201B
:100AE0008DF8040000208DF8060001208DF8070025
:100AF00003208DF805000002009069460448FFF7C6
:100B000032FF4FF440710248FFF7A3FF1CBD000005
:100B10000004024070B5002500F034F84FF48071F5
:100B20001748FFF794FF052001F05FFD002423E044
:100B30004FF480711248FFF78CFF052001F055FD3E
:100B40004FF400710E48FFF779FF30B1C4F107018F
:100B5000012088402843C5B204E0C4F10701012008
:100B6000884085434FF480710548FFF770FF0520EA
:100B700001F03BFD601CC4B2082CD9DB284670BDD7
:100B8000000402401CB50121022000F03BFC0020C3
:100B90008DF8040001208DF807004002009069469E
:100BA0000148FFF7E0FE1CBD000402401CB5012116
:100BB000022000F027FC01208DF8040000208DF8B1
:100BC000060001208DF8070003208DF805004FF482
:100BD0000070009069460248FFF7C5FE1CBD00008A
:100BE0000004024010B5FFF7E1FF4FF400710C481C
:100BF000FFF72FFF4FF480710948FFF72AFF052008
:100C000001F0F3FC4FF400710548FFF720FF0520C9
:100C100001F0EBFC4FF480710148FFF718FF10BDA5
:100C20000004024010B5FFF7C1FF4FF400710C48FB
:100C3000FFF70DFF4FF480710948FFF708FF05200B
:100C400001F0D3FC4FF480710548FFF702FF052047
:100C500001F0CBFC4FF400710148FFF7FAFE10BD24
:100C60000004024010B5FFF78DFF4FF480710F486C
:100C7000FFF7EDFE052001F0B8FC4FF480710B4842
:100C8000FFF7E7FE052001F0B0FC4FF400710748C4
:100C9000FFF7D4FE08B1012400E000244FF4807176
:100CA0000248FFF7D4FE204610BD000000040240B9
:100CB00070B50546FFF77AFF4FF480711548FFF7CE
:100CC000C6FE052001F091FC00241FE0C4F10701DD
:100CD00001208840284028B14FF400710D48FFF7EB
:100CE000B8FE04E04FF400710A48FFF7B0FE4FF47D
:100CF00080710848FFF7ADFE052001F076FC4FF447
:100D000080710448FFF7A3FE601CC4B2082CDDDB31
:100D100070BD00000004024010B50121082000F061
:100D200071FB0121102000F06DFB01200E490871BC
:100D30008871400208600120C87148710B48FFF7B4
:100D400012FE4FF40040084908600948FFF70BFE07
:100D50004FF400710548FFF77CFE4FF40041044852
:100D6000FFF777FE10BD0000700A0020000C024063
:100D70000010024010B50020044908714FF40040F3
:100D800008600348FFF7EFFD10BD0000700A002067
:100D90000010024010B5012003490871C00308602B
:100DA0000248FFF7E0FD10BD700A0020001002406D
:100DB00010B5FFF7EFFF4FF400410C48FFF749FE75
:100DC0004FF400710A48FFF744FE052001F00DFCC6
:100DD0004FF400410548FFF73AFE052001F005FCFD
:100DE0004FF400710248FFF732FE10BD00100240C0
:100DF000000C024010B5FFF7CDFF4FF400410C4846
:100E0000FFF725FE4FF400710A48FFF720FE05208A
:100E100001F0EBFB4FF400710648FFF71AFE0520C6
:100E200001F0E3FB4FF400410148FFF712FE10BD53
:100E300000100240000C024010B50024FFF79AFF9A
:100E40004FF400710E48FFF702FE052001F0CDFBC4
:100E50004FF400710A48FFF7FCFD052001F0C5FBC7
:100E60004FF400410748FFF7E9FD08B1012400E015
:100E700000244FF400710248FFF7E9FD204610BD41
:100E8000000C02400010024070B505460024FFF738
:100E900081FF4FF400711648FFF7D9FD052001F0DE
:100EA000A4FB21E0C4F1070101208840284028B1BB
:100EB0004FF400410F48FFF7CCFD04E04FF4004130
:100EC0000C48FFF7C4FD4FF400710948FFF7C1FD5E
:100ED000052001F08AFB4FF400710548FFF7B7FDCC
:100EE000052001F082FB641C082CDBDB70BD0000D8
:100EF000000C0240001002401FB500208DF80C00CD
:100F00000120029000208DF80E0001208DF80F00C6
:100F100000208DF80D008DF804001C2000900020AA
:100F20008DF8060001208DF8070000208DF80500DF
:100F30000121112000F066FA02A90448FFF713FD11
:100F400069460348FFF70FFD1FBD00000000024087
:100F50000010024010B5FFF7DFFE0021AE2000F0C8
:100F6000FBF90021084600F0F7F90021102000F0FD
:100F7000F3F90021402000F0EFF90021B02000F04B
:100F8000EBF90021812000F0E7F90021FF2000F0BB
:100F9000E3F90021A12000F0DFF90021A62000F0F4
:100FA000DBF90021A82000F0D7F900213F2000F054
:100FB000D3F90021C82000F0CFF90021D32000F0A0
:100FC000CBF90021084600F0C7F90021D52000F038
:100FD000C3F90021802000F0BFF90021D82000F0E3
:100FE000BBF90021052000F0B7F90021D92000F05D
:100FF000B3F90021F12000F0AFF90021DA2000F070
:10100000ABF90021122000F0A7F90021DB2000F04D
:10101000A3F90021302000F09FF900218D2000F07D
:101020009BF90021142000F097F90021262000F000
:1010300093F90021084600F08FF90021084600F0DE
:101040008BF90021072000F087F90021072000F02C
:1010500083F90021084600F07FF90021FF2000F00D
:101060007BF900212E2000F077F90021D62000F036
:1010700073F90021084600F06FF90021AF2000F05D
:101080006BF910BD70B505460E46002407E0E3B2CB
:101090006107080E2A46002100F028FF641C032C7B
:1010A000F5DBE3B261011039C8B22A46002100F035
:1010B0001DFF002407E0E3B22107080E3246042199
:1010C00000F0E9FE641C072CF5DB072408E0E3B21E
:1010D000E11F0907080E3246062100F0DCFE641C01
:1010E0000E2CF4DB70BD00BFFEE7000030B589B008
:1010F00004460020069007900890002C4CD1462012
:101100008DF8180048480068642190FBF1F03030F9
:10111000C0B28DF819004448006890FBF1F201FB61
:1011200012000A2190FBF1F03030C0B28DF81A00A5
:101130003D48006890FBF1F201FB12003030C0B274
:101140008DF81B0039480068642190FBF1F03030C5
:10115000C0B28DF81C003548006890FBF1F201FB2D
:1011600012000A2190FBF1F03030C0B28DF81D0062
:101170002E48006890FBF1F201FB12003030C0B243
:101180008DF81E0006A8FFF7C1F8C5B22A4606A9C9
:101190000020FFF7E1F944E0012C42D1142101A81D
:1011A000FFF7F5F8072201A90020FFF791F90520C4
:1011B00001F0E7F99DF8040046282FD1142101A879
:1011C000FFF7E5F8072201A90020FFF781F99DF854
:1011D00005003038642110FB01F19DF8060030381D
:1011E00000EB800001EB40019DF807003038084417
:1011F0000D4908609DF808003038642110FB01F1AA
:101200009DF80900303800EB800001EB40019DF8AB
:101210000A00303808440549086002E00020FFF762
:1012200065FF09B030BD0000800A0020840A00205C
:101230007047000070B5002100230F22C4781CB352
:10124000174C246804F4E064C4F5E064C4F3072197
:10125000C1F10404E3B20A4144789C40E1B28478CD
:10126000144021430C07210E0E4C0578615504787B
:1012700004F01F050124AC4005786D11AD0005F1A7
:10128000E025C5F8004109E0047804F01F050124B9
:10129000AC40054D0678761145F8264070BD00003B
:1012A0000CED00E000E400E080E100E070B5042413
:1012B0000FE02146002000F03AF8002505E040212B
:1012C000002000F049F8681CC5B2802DF7DB601CD7
:1012D000C4B2062CEDDB70BD70B500240FE02146D2
:1012E000002000F024F8002505E04021002000F057
:1012F00033F8681CC5B2802DF7DB601CC4B2082C23
:10130000EDDB70BD2DE9F04104460D461646314631
:10131000204600F00CF8274605E04021002000F0B0
:101320001BF8781CC7B2AF42F7DBBDE8F08170B59F
:1013300004460D4605F1B001C8B2002100F00CF8DA
:10134000102141EA1410002100F006F804F00F000B
:10135000002100F001F870BD70B505460C46FFF79E
:1013600027FD7820FFF790FDFFF766FD28B1FFF716
:1013700041FD10A0FEF79AFF70BD2046FFF784FDE7
:10138000FFF75AFD28B1FFF735FD10A0FEF78EFFDD
:10139000F2E72846FFF778FDFFF74EFD28B1FFF78B
:1013A00029FD0FA0FEF782FFE6E7FFF723FD00BF50
:1013B000E2E70000B7A2CBCDC6F7BCFEB5D8D6B7E2
:1013C000CAA7B0DC2E2E2E0D0A000000B7A2CBCD8E
:1013D000D7D6B5D8D6B7CAA7B0DC2E2E2E0D0A00A8
:1013E000B7A2CBCDCAFDBEDDCAA7B0DC2E2E2E0D16
:1013F0000A000000014908627047000000000E4228
:101400007047000029B1064A12680243044B1A6073
:1014100004E0034A12688243014B1A6070470000DF
:101420003038024029B1064A12680243044B1A6060
:1014300004E0034A12688243014B1A6070470000BF
:101440004038024029B1064A12680243044B1A6030
:1014500004E0034A12688243014B1A60704700009F
:1014600044380240F0B50021002200240225002665
:101470000223324F3F6807F00C0121B1042905D047
:10148000082937D105E02E4F076036E02D4F076061
:1014900033E02A4F3F1F3F68C7F38056274F3F1F57
:1014A0003F6807F03F036EB1264FB7FBF3F7DFF855
:1014B0008CC0ACF1040CDCF800C0CCF3881C07FB3A
:1014C0000CF40CE01E4FB7FBF3F7DFF870C0ACF183
:1014D000040CDCF800C0CCF3881C07FB0CF4174F9D
:1014E0003F1F3F68C7F301477F1C7D00B4FBF5F742
:1014F000076002E0124F076000BF00BF0F4F3F6858
:1015000007F0F0010909104F7A5C0768D74047607F
:101510000A4F3F6807F4E051890A0B4F7A5C47682D
:10152000D7408760054F3F6807F46041490B064F7D
:101530007A5C4768D740C760F0BD000008380240B9
:101540000024F40000127A000000002010B50146CB
:101550000022002300204A11012A02D10A4C2368EC
:1015600008E0022A03D1084C7034236802E0064CDC
:101570007434236801F01F02012494401C400CB114
:10158000012000E0002010BD003802400021094A7F
:1015900011701170012802D0042808D103E0012144
:1015A000044A117004E00521024A117000E000BFF6
:1015B00000BF704770380240014908607047000062
:1015C0003C0E4742002100F44072B2F5407F08D142
:1015D000094A116821F4F811084A02401143064AE9
:1015E0001160054A68321268C0F30B031A43024BBC
:1015F00068331A607047000008380240FFFCFF0F94
:10160000014600BF080900EB8000420001F00F0016
:101610001044C0B270470146002204E0501CC2B220
:10162000A1F10A00C1B20A29F8DA100741EA1060F4
:101630007047000008B50022009200200021104AE7
:10164000126802F04002CAB9421E0D4B1A6000BF78
:101650000B4A126802F04001009A521C0092009A54
:10166000B2F5803F01D00029F2D0054A126802F09D
:1016700040020AB1012002E0002000E0012008BD84
:101680000C2800400348006820F0800001490860F1
:10169000704700000C28004030B504460025CA20E1
:1016A0001549086053200860FFF7C4FF00B91DE02A
:1016B00011481C38006820F040000F491C390860B0
:1016C00008460068216808430B491C3908600A492C
:1016D0001439A068086008460068A18840EA014003
:1016E000054914390860FFF7CDFF0125FF200249A5
:1016F0000860284630BD00002428004008B5014697
:101700000020009004480090009800EB81000090B9
:101710000098006808BD0000502800402DE9F04105
:1017200005460C46002600274DB9607800F01000F1
:10173000102804D1607820F010000A30607005B9DC
:1017400008E06078FFF75CFF0646A078FFF758FFD7
:10175000064600BF55B1E0780004617840EA0120F8
:10176000A1780843217840EA413611E0E078FFF79C
:1017700052FF4FEA00486078FFF74DFF48EA002823
:10178000A078FFF748FF48EA0008207848EA40368A
:10179000CA201249086053200860FFF74BFF08B9C0
:1017A000002714E00E4830400C4920390860FFF74C
:1017B00069FF0A481C38006800F0200030B900F0CA
:1017C00079F808B9002702E0012700E00127FF208F
:1017D000024908603846BDE8F08100002428004036
:1017E0003FFFFF002DE9F04105460C46002600278B
:1017F0004DB92E48006800F0400000B102E0002022
:10180000E07000BF0DE02948006800F0400020B102
:101810002078FFF7F5FE064602E00020E07000BFEA
:1018200000BF55B120780004617840EA0120A1781A
:101830000843E17840EA014611E02078FFF7EBFE2B
:101840004FEA00486078FFF7E6FE48EA0028A078F3
:10185000FFF7E1FE48EA0008E07848EA0046CA20BF
:1018600012491C31086053200860FFF7E3FE08B9F5
:10187000002713E00E4830400C4908390860FFF794
:1018800001FF0A48006800F0200030B900F012F8AB
:1018900008B9002702E0012700E00127FF200349E3
:1018A0001C3108603846BDE8F0810000082800407F
:1018B0007F7F7F0008B50022009200200021CA220D
:1018C000134B1A6053221A60114A183A126822F018
:1018D000A0020F4B183B1A6000BF0D4A183A12685D
:1018E00002F02001009A521C0092009AB2F5003FCB
:1018F00001D00029F1D0064A183A126802F02002FD
:101900000AB1012000E00020FF22014B1A6008BD4F
:101910002428004008B500220092044A0092009A50
:1019200002EB80020092009A116008BD502800402E
:1019300070B5044600250120334908713348FFF78C
:1019400012F84FF400713148FFF781F8142000F0CD
:1019500018FE4FF400712D48FFF77BF81E2000F0B1
:1019600044FE0020284908712848FEF7FCFF00BF0C
:101970004FF400712548FFF761F80128F8D008E01E
:101980006D1C112D02DD4FF0FF3070BD052000F001
:101990002CFE4FF400711D48FFF750F80028EFD0DF
:1019A00000254FF400711948FFF748F8012811D1BC
:1019B00008E06D1C6E2D02DD4FF0FF30E5E70120E1
:1019C00000F013FE4FF400711048FFF737F80128BC
:1019D000EFD002E04FF0FF30D7E7204600F018F8D4
:1019E00010B16FF00100D0E7207861780844A17849
:1019F0000844E17808442179884201D10020C4E7F5
:101A00006FF00200C1E70000900A002000180240B9
:101A10002DE9F04105460027002400264FF400710F
:101A20002548FFF70BF8002843D100BF3DE0002018
:101A30002855002736E009E0761C322E03DD4FF0F2
:101A4000FF30BDE8F081012000F0CFFD4FF40071C0
:101A50001948FEF7F3FF0028EED000261E2000F004
:101A6000C4FD4FF400711448FEF7E8FF012806D1C9
:101A7000285DC7F10702012191400843285508E07D
:101A8000761C462E02DD6FF00100DAE7012000F03F
:101A9000ACFD4FF400710848FEF7D0FF0128EFD0ED
:101AA00000267F1C082FC6DB641C052CBFDB002032
:101AB000C7E76FF00200C4E70018024010B501212B
:101AC0000807FFF7AFFC0120FFF794FC0020FFF7A9
:101AD00015FE4AF2A001884237D10120FFF756FDDA
:101AE00000BF4120FFF732FD0028FAD01748FFF76A
:101AF00069FD0120FFF760FDFFF7DCFE01201449BE
:101B0000486000200860012088600846FFF7C4FD97
:101B100019201049C87007204870062088700720D7
:101B200008700120FFF7FAFD00200B49C870212042
:101B3000087030204870002088700120FFF752FEA6
:101B40004AF2A0010020FFF7E5FE10BD00030200ED
:101B5000D00A0020A00A0020A40A0020704700003C
:101B600030B500228B071C0F0F2303FA04F20B4B36
:101B70008C1053F824309343084C8D1044F82530D2
:101B800023468C1053F824308C07240F00FA04F4F9
:101B90002343024C8D1044F8253030BD08380140F5
:101BA0000CB50020019000903448006840F480306B
:101BB0003249086000BF3148006800F400300090EE
:101BC0000198401C0190009818B90198B0F5A04FF9
:101BD000F1D12A48006800F4003010B101200090D3
:101BE00001E0002000900098012846D123484030B1
:101BF000006840F08050214940310860204800686A
:101C000040F440401E4908601C48083000681B49E9
:101C1000083108600846006840F400400860084643
:101C2000006840F4A05008601648091F0860081FAB
:101C3000006840F08070091F086000BF0F4800680E
:101C400000F000700028F9D040F205700E490860DD
:101C50000A480830006820F003000849083108608D
:101C60000846006840F00200086000BF03480830E2
:101C7000006800F00C000828F8D10CBD00380240C4
:101C80000070004008544007003C02402DE9F0413C
:101C90000025002407E0E3B22107080E624A002174
:101CA00000F0F9F8641C022C03DA60480068002890
:101CB000F1D0042408E0E3B2A11E0907080E5A4A35
:101CC000002100F0E8F8641C082C03DA574800688B
:101CD0000028F0D05648066801250BE00A2096FB44
:101CE000F0F030B105EB850045000A2096FBF0F6D8
:101CF00000E000E0F2E700BF00244D48066814E071
:101D000096FBF5F0103000F0FF08E1005831C8B242
:101D10004346484A002100F093F8641C96FBF5F016
:101D200005FB10660A2095FBF0F5002EE8D1002D8A
:101D3000E6D13E480068022802D03C48006888B9D5
:101D4000022280216820FFF7DDFA0322802168202B
:101D5000FFF7D8FAE1005831C8B20823324A00210F
:101D600000F099F834480068012801D1BDE8F081FD
:101D7000022408E0E3B2A11E0907080E2A4A022144
:101D800000F089F8641C082C03DA28480068002851
:101D9000F0D02A48076801250BE00A2097FBF0F0F5
:101DA00030B105EB850045000A2097FBF0F700E015
:101DB00000E0F2E700BF00242048076814E097FB2A
:101DC000F5F0103000F0FF08E1005831C8B243468A
:101DD000184A022100F034F8641C97FBF5F005FB6B
:101DE00010770A2095FBF0F5002FE8D1002DE6D101
:101DF0000E480068032812D1002280216820FFF7D6
:101E000081FA012280216820FFF77CFAE100583135
:101E1000C8B20823044A022100F03DF802E0022083
:101E20000249086000BFA1E7900700209C0A00203B
:101E3000800A00205E290008980A0020840A0020F9
:101E40002DE9F04180460F4615461E46394640466C
:101E5000FFF76DFA002407E0102101FB0641685CE2
:101E60004021FFF779FA641C082CF5DB781CC1B21D
:101E70004046FFF75CFA002409E004F10801102253
:101E800002FB0611685C4021FFF766FA641C082C0F
:101E9000F3DBBDE8F0812DE9F04180460F461546A1
:101EA0001E4639464046FFF742FA002407E020214B
:101EB00001FB0641685C4021FFF74EFA641C102CC0
:101EC000F5DB781CC1B24046FFF731FA002409E087
:101ED00004F11001202202FB0611685C4021FFF78B
:101EE0003BFA641C102CF3DBBDE8F0812DE9F041D6
:101EF00080460F4615461E4639464046FFF717FAFC
:101F0000002407E0802101FB0641685C4021FFF7C7
:101F100023FA641C202CF5DB781CC1B24046FFF785
:101F200006FA002409E004F12001802202FB0611D8
:101F3000685C4021FFF710FA641C202CF3DBB81C0E
:101F4000C1B24046FFF7F3F9002409E004F1400173
:101F5000802202FB0611685C4021FFF7FDF9641C3A
:101F6000202CF3DBF81CC1B24046FFF7E0F9002457
:101F700009E004F16001802202FB0611685C402147
:101F8000FFF7EAF9641C202CF3DBBDE8F0810000C8
:101F90002DE9F0410125002407E0E3B22107080EF6
:101FA0008E4A0021FFF777FF641C052C03DA8C486A
:101FB00000680028F1D08B48066801250BE00A2054
:101FC00096FBF0F030B105EB850045000A2096FB4A
:101FD000F0F600E000E0F2E700BF83480068012867
:101FE00001D0BDE8F0817F4800680A280ADA0022A3
:101FF00080216020FFF786F9012280216020FFF711
:1020000081F918E07748006864280ADA0022802104
:102010006820FFF777F9012280216820FFF772F925
:1020200009E0002280217020FFF76CF90122802155
:102030007020FFF767F900246A48066814E096FBF1
:10204000F5F0103000F0FF08E1004831C8B2434617
:10205000664A0021FFF7F4FE641C96FBF5F005FBD1
:1020600010660A2095FBF0F5002EE8D1002DE6D190
:10207000E1004831C8B20523584A0021FFF70BFFA1
:10208000002407E0E3B22107080E594A0221FFF7B6
:1020900002FF641C052C03DA514800680028F1D0C7
:1020A0005448076801250BE00A2097FBF0F030B197
:1020B00005EB850045000A2097FBF0F700E000E003
:1020C000F2E700BF48480068012800D089E7494886
:1020D00000680A280ADA022280216820FFF712F934
:1020E000032280216820FFF70DF909E002228021F8
:1020F0007020FFF707F9032280217020FFF702F913
:1021000000243C48076814E097FBF5F0103000F01D
:10211000FF08E1004831C8B24346344A0221FFF7C4
:102120008FFE641C97FBF5F005FB10770A2095FBEA
:10213000F0F5002FE8D1002DE6D1E1004831C8B21A
:1021400005232A4A0221FFF77BFE641CE100483187
:10215000C8B23223254A0221FFF772FE641CE10057
:102160004831C8B22823214A0221FFF769FE1E48E0
:102170000068012800D034E7002407E0E3B221071B
:10218000080E1D4A0421FFF786FE641C052C03DAA5
:10219000134800680028F1D0184800681149096800
:1021A00088420CDD0523144A04215020FFF773FEFA
:1021B0000623114A04216020FFF76DFE0BE0072380
:1021C0000D4A04215020FFF766FE08230A4A042125
:1021D0006020FFF760FE00BF03E70000100500204D
:1021E0009C0A0020880A0020980A00205E29000826
:1021F000D00500208C0A002070060020800A0020F4
:10220000042808D14FF0E021096941F004014FF0A2
:10221000E022116107E04FF0E021096921F004019B
:102220004FF0E022116170477047000010B515486B
:10223000006840F47000134908601348006840F0DB
:1022400001001149086000200F49083108600E485C
:1022500000680E4908400C4908600D48091D0860D7
:10226000081F006820F48020091F0860002006492C
:102270000C310860FFF794FC4FF000600149803991
:10228000086010BD88ED00E000380240FFFFF6FE58
:102290001030002410B56FF00400FFF7B1FF10BD3F
:1022A00010B588B0044601211020FFF7CBF80121BA
:1022B0000846FFF7A7F8072209212248FEF79BFBF3
:1022C00007220A211F48FEF796FB02208DF81C000A
:1022D00000208DF81E004FF4C060069001208DF89C
:1022E0001F008DF81D0006A91648FEF73CFB02945E
:1022F0000020ADF814000C20ADF812000020ADF85D
:102300001000ADF80E00ADF80C0002A90E4800F068
:10231000C5F8012240F225510B4800F09AF825201B
:102320008DF8040001208DF807008DF805008DF868
:10233000060001A8FEF77EFF0121034800F053F8D4
:1023400008B010BD000002400010014010B540F27E
:102350002551184800F053F801282AD1154800F0FB
:1023600007F9C1B2144802780078401C124B18706B
:102370001248815418460078801E1049085C0D28C8
:1023800012D118460078401E085C0A280CD10C486F
:10239000FDF798FF14210948FDF7D7FF00200649F3
:1023A000087001200749087040F22551014800F0EB
:1023B0000BF810BD001001407C0A0020A80A002084
:1023C000BC0A00207D0A002010B50022002340F640
:1023D0006A14A14200D100BF0A1201249440A3B2A2
:1023E000DC43048010BD21B1828942F40052828115
:1023F00004E082894DF6FF731A408281704770B500
:102400000246002400230025002040F66A16B1424F
:1024100000D100BFC1F3421501F01F03012606FAE7
:1024200003F3012D02D19689334006E0022D02D13B
:10243000168A334001E0968A33400C12012606FAD0
:1024400004F41688344013B10CB1012000E00020E0
:1024500070BDF0B50346002400260025002040F69C
:102460006A17B94200D100BF1846C1F3421401F007
:102470001F06012707FA06F5012C01D10C3004E0F4
:10248000022C01D1103000E014301AB107682F433C
:10249000076002E00768AF430760F0BD2DE9FF4722
:1024A00005460E460024A14600BFA046B08900B1F3
:1024B00000BF2C8A24F44054F08804432C82AC8959
:1024C00041F20C608443B088318908437189084324
:1024D0000443AC81AC8A24F44074B0890443AC82D8
:1024E0006846FEF7BFFF2048854202D01F4885425C
:1024F00002D1DDF80C9001E0DDF80890A88900F425
:10250000004040B109EBC90000EB091031684900F7
:10251000B0FBF1F707E009EBC90000EB09103168E7
:102520008900B0FBF1F76420B7FBF0F0040120094B
:10253000642101FB1078A88900F4004040B13220EA
:1025400000EBC800B0FBF1F000F00700044308E026
:10255000322000EB08106421B0FBF1F000F00F0016
:1025600004432C81BDE8FF870010014000140140A6
:1025700001468888C0F30800704700BFFEE700BF2F
:1025800070470146002045F208224A434FF0E023FD
:102590005A6100229A611A46126942F001021A61D8
:1025A00000BF4FF0E022106900F480321AB900F049
:1025B0000102002AF5D14FF0E022126922F0010257
:1025C0004FF0E0231A6100229A61704710B504466B
:1025D00008E04FF4FA70FFF7D4FF4FF4FA70FFF7FA
:1025E000D0FF641E002CF4D110BD01460020C1EBC9
:1025F000C10202EB42024FF0E0235A6100229A61CD
:102600001A46126942F001021A6100BF4FF0E0223F
:10261000106900F480321AB900F00102002AF5D1E5
:102620004FF0E022126922F001024FF0E0231A611C
:1026300000229A617047000000BF054A128802F02C
:102640004002002AF9D0C2B2014B9A8070470000C4
:102650000010014001250024FFF71CFE4FF4E1307B
:10266000FFF71EFEFFF72AFAFEF774FCFEF734FEB2
:10267000FEF712F9FDF728FF21A0FDF717FE012054
:10268000FEF734FD25492648FEF7FCFC01202549CC
:1026900008600220FFF79AFFFEF71EFE2EE0214899
:1026A000006885420AD00520FFF76BFF00201E4915
:1026B00008601C4805680020FEF718FD19480068EE
:1026C000012814D11848006808B9FEF7EFFD0A2068
:1026D00094FBF0F100FB114010B9FEF7BDF90024A6
:1026E000641CFFF755FC02200F49086006E00E4805
:1026F000006808B9FEF7DAFDFFF7C8FACFE7000077
:10270000486172645761726520496E69742053751F
:102710006363657373210D0A0000000050030020FD
:1027200050010020980A00209C0A00204FF04070C1
:10273000E1EE100A70470000000000000000002FCA
:10274000000000000700070000147F147F1400241D
:102750002A7F2A120062640813230036495522504A
:1027600000000503000000001C224100000041227F
:102770001C000014083E08140008083E0808000069
:1027800000A0600000080808080800006060000061
:10279000002010080402003E5149453E0000427FDF
:1027A0004000004261514946002141454B3100182B
:1027B00014127F10002745454539003C4A494930ED
:1027C00000017109050300364949493600064949A7
:1027D000291E0000363600000000563600000008B2
:1027E000142241000014141414140000412214088F
:1027F00000020151090600324959513E007C121174
:10280000127C007F49494936003E41414122007F08
:102810004141221C007F49494941007F09090901C2
:10282000003E4149497A007F0808087F0000417F47
:102830004100002040413F01007F08142241007FF9
:1028400040404040007F020C027F007F0408107F60
:10285000003E4141413E007F09090906003E4151C9
:10286000215E007F09192946004649494931000186
:10287000017F0101003F4040403F001F2040201FDA
:10288000003F4038403F006314081463000708709D
:10289000080700615149454300007F414100005550
:1028A0002A552A55000041417F000004020102041C
:1028B0000040404040400000010204000020545409
:1028C0005478007F48444438003844444420003859
:1028D0004444487F00385454541800087E090102CB
:1028E0000018A4A4A47C007F080404780000447DA0
:1028F0004000004080847D00007F102844000000DC
:10290000417F4000007C04180478007C08040478AF
:1029100000384444443800FC24242418001824249B
:1029200018FC007C08040408004854545420000497
:102930003F444020003C4040207C001C2040201CA4
:10294000003C4030403C004428102844001CA0A01B
:10295000A07C004464544C44141414141414000057
:102960000000000000000000000000000000000067
:1029700000F80000000000000033300000000010EC
:102980000C06100C0600000000000000000040C013
:102990007840C0784000043F04043F040400007005
:1029A00088FC08300000001820FF211E0000F008FD
:1029B000F000E018000000211C031E211E0000F0A2
:1029C0000888700000001E212324192721101016EA
:1029D0000E000000000000000000000000000000E9
:1029E00000E0180402000000000718204000000268
:1029F0000418E000000000402018070000004040DC
:102A000080F0804040000202010F0102020000003D
:102A100000F0000000000101011F010101000000A1
:102A200000000000000080B0700000000000000006
:102A3000000000000000000101010101010100008F
:102A40000000000000000030300000000000000026
:102A5000000080601804006018060100000000E01B
:102A600010080810E000000F102020100F000010C8
:102A700010F8000000000020203F2020000000701F
:102A80000808088870000030282422213000003017
:102A90000888884830000018202020110E0000000F
:102AA000C02010F8000000070424243F240000F890
:102AB0000888880808000019212020110E0000E075
:102AC000108888180000000F112020110E00003817
:102AD0000808C83808000000003F0000000000702F
:102AE000880808887000001C222121221C0000E0B8
:102AF00010080810E0000000312222110F00000031
:102B000000C0C000000000000030300000000000E5
:102B10000080000000000000806000000000000055
:102B200080402010080000010204081020004040EE
:102B30004040404040000404040404040400000831
:102B400010204080000000201008040201000070E6
:102B500048080808F0000000003036010000C030CE
:102B6000C828E810E0000718272423140B000000F1
:102B7000C038E0000000203C23020227382008F87B
:102B8000888888700000203F202020110E00C0306F
:102B9000080808083800071820202010080008F846
:102BA00008080810E000203F202020100F0008F83F
:102BB0008888E8081000203F20202320180008F80B
:102BC0008888E8081000203F200003000000C03083
:102BD00008080838000007182020221E020008F804
:102BE00008000008F808203F210101213F200008CB
:102BF00008F8080800000020203F20200000000006
:102C00000808F8080800C08080807F00000008F8ED
:102C100088C028180800203F20012638200008F826
:102C2000080000000000203F20202020300008F88D
:102C3000F800F8F80800203F003F003F200008F8A7
:102C400030C00008F808203F200007183F00E010BF
:102C500008080810E0000F10202020100F0008F8CE
:102C600008080808F000203F210101010000E010E1
:102C700008080810E0000F18242438504F0008F806
:102C8000888888887000203F2000030C3020007066
:102C90008808080838000038202121221C00180864
:102CA00008F8080818000000203F2000000008F87D
:102CB00008000008F808001F202020201F000878C6
:102CC000880000C83808000007380E010000F80826
:102CD00000F80008F800033C0700073C0300081850
:102CE00068808068180820302C03032C30200838B6
:102CF000C800C83808000000203F2000000010086D
:102D00000808C838080020382621202018000000B4
:102D100000FE020202000000007F40404000000C64
:102D200030C000000000000000010638C0000002B2
:102D30000202FE000000004040407F000000000052
:102D40000402020204000000000000000000000075
:102D50000000000000008080808080808080000271
:102D6000020400000000000000000000000000005D
:102D70008080808000000019242222223F2008F851
:102D8000008080000000003F112020110E00000094
:102D9000008080800000000E112020201100000023
:102DA00000808088F800000E112020103F200000D5
:102DB000808080800000001F2222222213000080D9
:102DC00080F0888888180020203F20200000000024
:102DD000808080808000006B94949493600008F859
:102DE000008080800000203F210000203F200080E4
:102DF0009898000000000020203F202000000000E4
:102E000000809898000000C08080807F000008F853
:102E1000000080808000203F24022D302000000828
:102E200008F8000000000020203F202000008080E3
:102E3000808080808000203F20003F20003F8080F5
:102E4000008080800000203F210000203F20000003
:102E5000808080800000001F202020201F008080B4
:102E600000808000000080FFA12020110E000000E3
:102E7000008080808000000E112020A0FF808080D4
:102E800080008080800020203F2120000100000081
:102E90008080808080000033242424241900008056
:102EA00080E0808000000000001F20200000808063
:102EB000000000808000001F202020103F20808024
:102EC00080000080808000010E30080601008080B4
:102ED0000080008080800F300C030C300F000080D9
:102EE0008000808080000020312E0E312000808004
:102EF00080000080808080818E7018060100008034
:102F00008080808080000021302C22213000000051
:102F10000000807C020200000000003F40400000F2
:102F20000000FF00000000000000FF0000000002A1
:102F3000027C800000000040403F000000000006CE
:102F40000101020204040000000000000000000073
:102F5000702F000800000020A80A0000C40100082B
:102F600088340008A80A0020980600002002000803
:102F7000412D010203040440140607080980804023
:102F800020100824C3040810204080801A02015633
:102F90008242221A06300EFC8484FC10E82427E4C6
:102FA00024342CE0180F3F10103F8043320E033EB4
:102FB0004242437020200E0404FC20104C4B484831
:102FC00048C80808150F04040F100A30484442424C
:102FD000414040701F08488808C838272606154415
:102FE000847C1720100C030418400910131212528D
:102FF00092423E4CC0388801293F212D18292120BA
:10300000017530111F0E29A454F0F8F8180C0406AD
:103010000505042424243F3F3F06312D30300808A5
:103020003E545870303B18183F5B2031403D605093
:103030001008011B98F0AF1982500C302828242466
:103040002222212030181A10014AF05D51293D2B0F
:103050003F3F06514CC0E03041351830E0C03D07DD
:103060000F1810618510180F073CC0F83CBD3CE0FC
:103070007C1C0829B55BC080091E6038FEFB080770
:103080003809300C070101FFFF01014681C18101B0
:1030900001320393FFFF3CFFFF4101954060604018
:1030A0000B127F7F0BA14A80011808FCF8888080F2
:1030B000C0C0044BE070BD59DF5901280B1F9FD0E1
:1030C0007030181C1613110E3C1818103B2B404082
:1030D000CC480809FE4642434342010411FEFE0269
:1030E0009A7F49034C3F3F061B0C1E1E1E0C0520F9
:1030F0000E0F0F0FACF8F80801D3FC082E40404F1C
:103100004F44013BC4C40795446F684089D75F9022
:10311000F07F1730D00D5C1818103C1D4040202067
:1031200010450C060301180B03060C0C1838303040
:10313000703021196C297A1C1010FF331AF04D18C9
:103140000E30101F088848300E014080403F20108C
:1031500008CC4A49484ACC18277F88888482E027CF
:10316000FF121252927F5A7E10741010F843C0C0A2
:103170005620203F20202B30309D2460028C2BFED7
:10318000920132FE180A04047E01407E42427E0211
:103190002B427EC52809FC242424FC252624081261
:1031A00004301040308F80844C55252525554C80A7
:1031B00080801A7E7419172E0F04146404CE393DD2
:1031C00039042C7E4040FD100DFF902098482809BE
:1031D0000E2848A8181D0242817F2549210B404234
:1031E00040E01A703E8B8870E02E3028242221DACD
:1031F00099E049DF79E0080B604448507F40407F08
:10320000504844E0111D404244586D4640405048EB
:10321000C67B40440132FF180D0808E8292E28E833
:103220000808C80C0B06311DFF094989E01C0F4036
:10323000800649C059C169C0498339810921C0014B
:1032400010E33636250C12120C1CC03008019238DF
:103250001F071820202010900942C049BF79C01CC8
:10326000444850500D417F504844C01308301AFF65
:10327000AB1A20051C222C2060080D120201FF80D1
:1032800040300E010618204040012F200E04848497
:103290004424548F142444848404234139080C208A
:1032A0003C4040424C404070040931A028090202D1
:1032B000C2020202FE820122021A40F959042901C7
:1032C000113010201808EAACA8A8AFA8A8ACEA08EA
:1032D00028181A3E2F400802FF020212221E1F2049
:1032E00010E82427A40125B4AC202019DB220F30DC
:1032F000093F40404448474070180DFE225A86401E
:1033000020504C434C50205011180DFF040807402A
:103310004458414E605847101D1060028C252A9277
:10332000012AFECF1809047E01407E42427E021B24
:10333000427E30112809FC242424FC25262408126E
:1033400004481040308F80844C55252525554C80ED
:10335000808040493F79401C444850C00D207F5038
:10336000484440197C39E847FF80402010082E7FF0
:1033700020201010C2190112781010C8B88FE888E8
:1033800088804828090E08284888280E081808FF51
:1033900004048080432C102C4340200E8060F807EA
:1033A00004E4A4A4BFA4A4E4041A01E2197C2A4AF8
:1033B0000119850113D336367F80C0E0F0F8C001D3
:1033C00078080103070F1F3F0701211BF010012A96
:1033D000FF050215F01B0F04011994041304040FD8
:1033E00019C51E5F55555575042A5FE80910210857
:1033F0000C12200F094989790909090F20AF2FFE06
:1034000002424ACA4A0304134202FE000E14FF405D
:10341000504C4340404F50505C40FF1BF888012AFD
:10342000FF050215F81B1F08012A7F200B109F8043
:10343000E23B808201000916E2A2928A86828080A5
:10344000041840807F172424A4FEA3221B22CCAAA8
:10345000011415080601FF2B0104010511FF0202EA
:10346000025808101010FF109008C3021108080F2E
:10347000150444827F01808040432C10284681A09F
:08348000B12A1EF20123000035
:040000050800018965
:00000001FF
